{
	"data": {
		"bytecode": {
			"linkReferences": {},
			"object": "608060405234801561001057600080fd5b506106b6806100206000396000f3fe608060405234801561001057600080fd5b50600436106100625760003560e01c806323f184f11461006757806350a2efe5146100975780636287fc59146100b557806364c4d44b146100e5578063ba4e9ad214610103578063be935d2514610133575b600080fd5b610081600480360381019061007c919061048e565b610151565b60405161008e91906104d6565b60405180910390f35b61009f610171565b6040516100ac919061050a565b60405180910390f35b6100cf60048036038101906100ca9190610551565b610177565b6040516100dc919061050a565b60405180910390f35b6100ed6102cb565b6040516100fa919061050a565b60405180910390f35b61011d60048036038101906101189190610551565b6102d1565b60405161012a919061050a565b60405180910390f35b61013b610425565b604051610148919061050a565b60405180910390f35b60006020528060005260406000206000915054906101000a900460ff1681565b60015481565b60008015156000803373ffffffffffffffffffffffffffffffffffffffff1673ffffffffffffffffffffffffffffffffffffffff16815260200190815260200160002060009054906101000a900460ff1615151461020a576040517f08c379a0000000000000000000000000000000000000000000000000000000008152600401610201906105db565b60405180910390fd5b6001151582151514156102365760016002600082825461022a919061062a565b92505081905550610251565b600160026000828254610249919061062a565b925050819055505b6001806000828254610263919061062a565b9250508190555060016000803373ffffffffffffffffffffffffffffffffffffffff1673ffffffffffffffffffffffffffffffffffffffff16815260200190815260200160002060006101000a81548160ff0219169083151502179055506001549050919050565b60035481565b60008015156000803373ffffffffffffffffffffffffffffffffffffffff1673ffffffffffffffffffffffffffffffffffffffff16815260200190815260200160002060009054906101000a900460ff16151514610364576040517f08c379a000000000000000000000000000000000000000000000000000000000815260040161035b906105db565b60405180910390fd5b60011515821515141561039057600160036000828254610384919061062a565b925050819055506103ab565b6001600360008282546103a3919061062a565b925050819055505b60018060008282546103bd919061062a565b9250508190555060016000803373ffffffffffffffffffffffffffffffffffffffff1673ffffffffffffffffffffffffffffffffffffffff16815260200190815260200160002060006101000a81548160ff0219169083151502179055506001549050919050565b60025481565b600080fd5b600073ffffffffffffffffffffffffffffffffffffffff82169050919050565b600061045b82610430565b9050919050565b61046b81610450565b811461047657600080fd5b50565b60008135905061048881610462565b92915050565b6000602082840312156104a4576104a361042b565b5b60006104b284828501610479565b91505092915050565b60008115159050919050565b6104d0816104bb565b82525050565b60006020820190506104eb60008301846104c7565b92915050565b6000819050919050565b610504816104f1565b82525050565b600060208201905061051f60008301846104fb565b92915050565b61052e816104bb565b811461053957600080fd5b50565b60008135905061054b81610525565b92915050565b6000602082840312156105675761056661042b565b5b60006105758482850161053c565b91505092915050565b600082825260208201905092915050565b7f5a6174656e206f79206b756c6c616e6d69732e00000000000000000000000000600082015250565b60006105c560138361057e565b91506105d08261058f565b602082019050919050565b600060208201905081810360008301526105f4816105b8565b9050919050565b7f4e487b7100000000000000000000000000000000000000000000000000000000600052601160045260246000fd5b6000610635826104f1565b9150610640836104f1565b9250827fffffffffffffffffffffffffffffffffffffffffffffffffffffffffffffffff03821115610675576106746105fb565b5b82820190509291505056fea2646970667358221220390df121289202cc96e71f52f8345a25023548a2825bcdeb75bce495bfd2f9f364736f6c634300080a0033",
			"opcodes": "PUSH1 0x80 PUSH1 0x40 MSTORE CALLVALUE DUP1 ISZERO PUSH2 0x10 JUMPI PUSH1 0x0 DUP1 REVERT JUMPDEST POP PUSH2 0x6B6 DUP1 PUSH2 0x20 PUSH1 0x0 CODECOPY PUSH1 0x0 RETURN INVALID PUSH1 0x80 PUSH1 0x40 MSTORE CALLVALUE DUP1 ISZERO PUSH2 0x10 JUMPI PUSH1 0x0 DUP1 REVERT JUMPDEST POP PUSH1 0x4 CALLDATASIZE LT PUSH2 0x62 JUMPI PUSH1 0x0 CALLDATALOAD PUSH1 0xE0 SHR DUP1 PUSH4 0x23F184F1 EQ PUSH2 0x67 JUMPI DUP1 PUSH4 0x50A2EFE5 EQ PUSH2 0x97 JUMPI DUP1 PUSH4 0x6287FC59 EQ PUSH2 0xB5 JUMPI DUP1 PUSH4 0x64C4D44B EQ PUSH2 0xE5 JUMPI DUP1 PUSH4 0xBA4E9AD2 EQ PUSH2 0x103 JUMPI DUP1 PUSH4 0xBE935D25 EQ PUSH2 0x133 JUMPI JUMPDEST PUSH1 0x0 DUP1 REVERT JUMPDEST PUSH2 0x81 PUSH1 0x4 DUP1 CALLDATASIZE SUB DUP2 ADD SWAP1 PUSH2 0x7C SWAP2 SWAP1 PUSH2 0x48E JUMP JUMPDEST PUSH2 0x151 JUMP JUMPDEST PUSH1 0x40 MLOAD PUSH2 0x8E SWAP2 SWAP1 PUSH2 0x4D6 JUMP JUMPDEST PUSH1 0x40 MLOAD DUP1 SWAP2 SUB SWAP1 RETURN JUMPDEST PUSH2 0x9F PUSH2 0x171 JUMP JUMPDEST PUSH1 0x40 MLOAD PUSH2 0xAC SWAP2 SWAP1 PUSH2 0x50A JUMP JUMPDEST PUSH1 0x40 MLOAD DUP1 SWAP2 SUB SWAP1 RETURN JUMPDEST PUSH2 0xCF PUSH1 0x4 DUP1 CALLDATASIZE SUB DUP2 ADD SWAP1 PUSH2 0xCA SWAP2 SWAP1 PUSH2 0x551 JUMP JUMPDEST PUSH2 0x177 JUMP JUMPDEST PUSH1 0x40 MLOAD PUSH2 0xDC SWAP2 SWAP1 PUSH2 0x50A JUMP JUMPDEST PUSH1 0x40 MLOAD DUP1 SWAP2 SUB SWAP1 RETURN JUMPDEST PUSH2 0xED PUSH2 0x2CB JUMP JUMPDEST PUSH1 0x40 MLOAD PUSH2 0xFA SWAP2 SWAP1 PUSH2 0x50A JUMP JUMPDEST PUSH1 0x40 MLOAD DUP1 SWAP2 SUB SWAP1 RETURN JUMPDEST PUSH2 0x11D PUSH1 0x4 DUP1 CALLDATASIZE SUB DUP2 ADD SWAP1 PUSH2 0x118 SWAP2 SWAP1 PUSH2 0x551 JUMP JUMPDEST PUSH2 0x2D1 JUMP JUMPDEST PUSH1 0x40 MLOAD PUSH2 0x12A SWAP2 SWAP1 PUSH2 0x50A JUMP JUMPDEST PUSH1 0x40 MLOAD DUP1 SWAP2 SUB SWAP1 RETURN JUMPDEST PUSH2 0x13B PUSH2 0x425 JUMP JUMPDEST PUSH1 0x40 MLOAD PUSH2 0x148 SWAP2 SWAP1 PUSH2 0x50A JUMP JUMPDEST PUSH1 0x40 MLOAD DUP1 SWAP2 SUB SWAP1 RETURN JUMPDEST PUSH1 0x0 PUSH1 0x20 MSTORE DUP1 PUSH1 0x0 MSTORE PUSH1 0x40 PUSH1 0x0 KECCAK256 PUSH1 0x0 SWAP2 POP SLOAD SWAP1 PUSH2 0x100 EXP SWAP1 DIV PUSH1 0xFF AND DUP2 JUMP JUMPDEST PUSH1 0x1 SLOAD DUP2 JUMP JUMPDEST PUSH1 0x0 DUP1 ISZERO ISZERO PUSH1 0x0 DUP1 CALLER PUSH20 0xFFFFFFFFFFFFFFFFFFFFFFFFFFFFFFFFFFFFFFFF AND PUSH20 0xFFFFFFFFFFFFFFFFFFFFFFFFFFFFFFFFFFFFFFFF AND DUP2 MSTORE PUSH1 0x20 ADD SWAP1 DUP2 MSTORE PUSH1 0x20 ADD PUSH1 0x0 KECCAK256 PUSH1 0x0 SWAP1 SLOAD SWAP1 PUSH2 0x100 EXP SWAP1 DIV PUSH1 0xFF AND ISZERO ISZERO EQ PUSH2 0x20A JUMPI PUSH1 0x40 MLOAD PUSH32 0x8C379A000000000000000000000000000000000000000000000000000000000 DUP2 MSTORE PUSH1 0x4 ADD PUSH2 0x201 SWAP1 PUSH2 0x5DB JUMP JUMPDEST PUSH1 0x40 MLOAD DUP1 SWAP2 SUB SWAP1 REVERT JUMPDEST PUSH1 0x1 ISZERO ISZERO DUP3 ISZERO ISZERO EQ ISZERO PUSH2 0x236 JUMPI PUSH1 0x1 PUSH1 0x2 PUSH1 0x0 DUP3 DUP3 SLOAD PUSH2 0x22A SWAP2 SWAP1 PUSH2 0x62A JUMP JUMPDEST SWAP3 POP POP DUP2 SWAP1 SSTORE POP PUSH2 0x251 JUMP JUMPDEST PUSH1 0x1 PUSH1 0x2 PUSH1 0x0 DUP3 DUP3 SLOAD PUSH2 0x249 SWAP2 SWAP1 PUSH2 0x62A JUMP JUMPDEST SWAP3 POP POP DUP2 SWAP1 SSTORE POP JUMPDEST PUSH1 0x1 DUP1 PUSH1 0x0 DUP3 DUP3 SLOAD PUSH2 0x263 SWAP2 SWAP1 PUSH2 0x62A JUMP JUMPDEST SWAP3 POP POP DUP2 SWAP1 SSTORE POP PUSH1 0x1 PUSH1 0x0 DUP1 CALLER PUSH20 0xFFFFFFFFFFFFFFFFFFFFFFFFFFFFFFFFFFFFFFFF AND PUSH20 0xFFFFFFFFFFFFFFFFFFFFFFFFFFFFFFFFFFFFFFFF AND DUP2 MSTORE PUSH1 0x20 ADD SWAP1 DUP2 MSTORE PUSH1 0x20 ADD PUSH1 0x0 KECCAK256 PUSH1 0x0 PUSH2 0x100 EXP DUP2 SLOAD DUP2 PUSH1 0xFF MUL NOT AND SWAP1 DUP4 ISZERO ISZERO MUL OR SWAP1 SSTORE POP PUSH1 0x1 SLOAD SWAP1 POP SWAP2 SWAP1 POP JUMP JUMPDEST PUSH1 0x3 SLOAD DUP2 JUMP JUMPDEST PUSH1 0x0 DUP1 ISZERO ISZERO PUSH1 0x0 DUP1 CALLER PUSH20 0xFFFFFFFFFFFFFFFFFFFFFFFFFFFFFFFFFFFFFFFF AND PUSH20 0xFFFFFFFFFFFFFFFFFFFFFFFFFFFFFFFFFFFFFFFF AND DUP2 MSTORE PUSH1 0x20 ADD SWAP1 DUP2 MSTORE PUSH1 0x20 ADD PUSH1 0x0 KECCAK256 PUSH1 0x0 SWAP1 SLOAD SWAP1 PUSH2 0x100 EXP SWAP1 DIV PUSH1 0xFF AND ISZERO ISZERO EQ PUSH2 0x364 JUMPI PUSH1 0x40 MLOAD PUSH32 0x8C379A000000000000000000000000000000000000000000000000000000000 DUP2 MSTORE PUSH1 0x4 ADD PUSH2 0x35B SWAP1 PUSH2 0x5DB JUMP JUMPDEST PUSH1 0x40 MLOAD DUP1 SWAP2 SUB SWAP1 REVERT JUMPDEST PUSH1 0x1 ISZERO ISZERO DUP3 ISZERO ISZERO EQ ISZERO PUSH2 0x390 JUMPI PUSH1 0x1 PUSH1 0x3 PUSH1 0x0 DUP3 DUP3 SLOAD PUSH2 0x384 SWAP2 SWAP1 PUSH2 0x62A JUMP JUMPDEST SWAP3 POP POP DUP2 SWAP1 SSTORE POP PUSH2 0x3AB JUMP JUMPDEST PUSH1 0x1 PUSH1 0x3 PUSH1 0x0 DUP3 DUP3 SLOAD PUSH2 0x3A3 SWAP2 SWAP1 PUSH2 0x62A JUMP JUMPDEST SWAP3 POP POP DUP2 SWAP1 SSTORE POP JUMPDEST PUSH1 0x1 DUP1 PUSH1 0x0 DUP3 DUP3 SLOAD PUSH2 0x3BD SWAP2 SWAP1 PUSH2 0x62A JUMP JUMPDEST SWAP3 POP POP DUP2 SWAP1 SSTORE POP PUSH1 0x1 PUSH1 0x0 DUP1 CALLER PUSH20 0xFFFFFFFFFFFFFFFFFFFFFFFFFFFFFFFFFFFFFFFF AND PUSH20 0xFFFFFFFFFFFFFFFFFFFFFFFFFFFFFFFFFFFFFFFF AND DUP2 MSTORE PUSH1 0x20 ADD SWAP1 DUP2 MSTORE PUSH1 0x20 ADD PUSH1 0x0 KECCAK256 PUSH1 0x0 PUSH2 0x100 EXP DUP2 SLOAD DUP2 PUSH1 0xFF MUL NOT AND SWAP1 DUP4 ISZERO ISZERO MUL OR SWAP1 SSTORE POP PUSH1 0x1 SLOAD SWAP1 POP SWAP2 SWAP1 POP JUMP JUMPDEST PUSH1 0x2 SLOAD DUP2 JUMP JUMPDEST PUSH1 0x0 DUP1 REVERT JUMPDEST PUSH1 0x0 PUSH20 0xFFFFFFFFFFFFFFFFFFFFFFFFFFFFFFFFFFFFFFFF DUP3 AND SWAP1 POP SWAP2 SWAP1 POP JUMP JUMPDEST PUSH1 0x0 PUSH2 0x45B DUP3 PUSH2 0x430 JUMP JUMPDEST SWAP1 POP SWAP2 SWAP1 POP JUMP JUMPDEST PUSH2 0x46B DUP2 PUSH2 0x450 JUMP JUMPDEST DUP2 EQ PUSH2 0x476 JUMPI PUSH1 0x0 DUP1 REVERT JUMPDEST POP JUMP JUMPDEST PUSH1 0x0 DUP2 CALLDATALOAD SWAP1 POP PUSH2 0x488 DUP2 PUSH2 0x462 JUMP JUMPDEST SWAP3 SWAP2 POP POP JUMP JUMPDEST PUSH1 0x0 PUSH1 0x20 DUP3 DUP5 SUB SLT ISZERO PUSH2 0x4A4 JUMPI PUSH2 0x4A3 PUSH2 0x42B JUMP JUMPDEST JUMPDEST PUSH1 0x0 PUSH2 0x4B2 DUP5 DUP3 DUP6 ADD PUSH2 0x479 JUMP JUMPDEST SWAP2 POP POP SWAP3 SWAP2 POP POP JUMP JUMPDEST PUSH1 0x0 DUP2 ISZERO ISZERO SWAP1 POP SWAP2 SWAP1 POP JUMP JUMPDEST PUSH2 0x4D0 DUP2 PUSH2 0x4BB JUMP JUMPDEST DUP3 MSTORE POP POP JUMP JUMPDEST PUSH1 0x0 PUSH1 0x20 DUP3 ADD SWAP1 POP PUSH2 0x4EB PUSH1 0x0 DUP4 ADD DUP5 PUSH2 0x4C7 JUMP JUMPDEST SWAP3 SWAP2 POP POP JUMP JUMPDEST PUSH1 0x0 DUP2 SWAP1 POP SWAP2 SWAP1 POP JUMP JUMPDEST PUSH2 0x504 DUP2 PUSH2 0x4F1 JUMP JUMPDEST DUP3 MSTORE POP POP JUMP JUMPDEST PUSH1 0x0 PUSH1 0x20 DUP3 ADD SWAP1 POP PUSH2 0x51F PUSH1 0x0 DUP4 ADD DUP5 PUSH2 0x4FB JUMP JUMPDEST SWAP3 SWAP2 POP POP JUMP JUMPDEST PUSH2 0x52E DUP2 PUSH2 0x4BB JUMP JUMPDEST DUP2 EQ PUSH2 0x539 JUMPI PUSH1 0x0 DUP1 REVERT JUMPDEST POP JUMP JUMPDEST PUSH1 0x0 DUP2 CALLDATALOAD SWAP1 POP PUSH2 0x54B DUP2 PUSH2 0x525 JUMP JUMPDEST SWAP3 SWAP2 POP POP JUMP JUMPDEST PUSH1 0x0 PUSH1 0x20 DUP3 DUP5 SUB SLT ISZERO PUSH2 0x567 JUMPI PUSH2 0x566 PUSH2 0x42B JUMP JUMPDEST JUMPDEST PUSH1 0x0 PUSH2 0x575 DUP5 DUP3 DUP6 ADD PUSH2 0x53C JUMP JUMPDEST SWAP2 POP POP SWAP3 SWAP2 POP POP JUMP JUMPDEST PUSH1 0x0 DUP3 DUP3 MSTORE PUSH1 0x20 DUP3 ADD SWAP1 POP SWAP3 SWAP2 POP POP JUMP JUMPDEST PUSH32 0x5A6174656E206F79206B756C6C616E6D69732E00000000000000000000000000 PUSH1 0x0 DUP3 ADD MSTORE POP JUMP JUMPDEST PUSH1 0x0 PUSH2 0x5C5 PUSH1 0x13 DUP4 PUSH2 0x57E JUMP JUMPDEST SWAP2 POP PUSH2 0x5D0 DUP3 PUSH2 0x58F JUMP JUMPDEST PUSH1 0x20 DUP3 ADD SWAP1 POP SWAP2 SWAP1 POP JUMP JUMPDEST PUSH1 0x0 PUSH1 0x20 DUP3 ADD SWAP1 POP DUP2 DUP2 SUB PUSH1 0x0 DUP4 ADD MSTORE PUSH2 0x5F4 DUP2 PUSH2 0x5B8 JUMP JUMPDEST SWAP1 POP SWAP2 SWAP1 POP JUMP JUMPDEST PUSH32 0x4E487B7100000000000000000000000000000000000000000000000000000000 PUSH1 0x0 MSTORE PUSH1 0x11 PUSH1 0x4 MSTORE PUSH1 0x24 PUSH1 0x0 REVERT JUMPDEST PUSH1 0x0 PUSH2 0x635 DUP3 PUSH2 0x4F1 JUMP JUMPDEST SWAP2 POP PUSH2 0x640 DUP4 PUSH2 0x4F1 JUMP JUMPDEST SWAP3 POP DUP3 PUSH32 0xFFFFFFFFFFFFFFFFFFFFFFFFFFFFFFFFFFFFFFFFFFFFFFFFFFFFFFFFFFFFFFFF SUB DUP3 GT ISZERO PUSH2 0x675 JUMPI PUSH2 0x674 PUSH2 0x5FB JUMP JUMPDEST JUMPDEST DUP3 DUP3 ADD SWAP1 POP SWAP3 SWAP2 POP POP JUMP INVALID LOG2 PUSH5 0x6970667358 0x22 SLT KECCAK256 CODECOPY 0xD CALL 0x21 0x28 SWAP3 MUL 0xCC SWAP7 0xE7 0x1F MSTORE 0xF8 CALLVALUE GAS 0x25 MUL CALLDATALOAD BASEFEE LOG2 DUP3 JUMPDEST 0xCD 0xEB PUSH22 0xBCE495BFD2F9F364736F6C634300080A003300000000 "
		},
		"gasEstimates": {
			"creation": {
				"codeDepositCost": "343600",
				"executionCost": "380",
				"totalCost": "343980"
			},
			"external": {
				"_oyVerdiMi(address)": "2823",
				"_pinar()": "2517",
				"_tayyip()": "2473",
				"_toplamOySayisi()": "2429",
				"pinarOyVer(bool)": "infinite",
				"tayyipOyVer(bool)": "infinite"
			}
		},
		"methodIdentifiers": {
			"_oyVerdiMi(address)": "23f184f1",
			"_pinar()": "be935d25",
			"_tayyip()": "64c4d44b",
			"_toplamOySayisi()": "50a2efe5",
			"pinarOyVer(bool)": "6287fc59",
			"tayyipOyVer(bool)": "ba4e9ad2"
		}
	},
	"abi": [
		{
			"inputs": [
				{
					"internalType": "address",
					"name": "",
					"type": "address"
				}
			],
			"name": "_oyVerdiMi",
			"outputs": [
				{
					"internalType": "bool",
					"name": "",
					"type": "bool"
				}
			],
			"stateMutability": "view",
			"type": "function"
		},
		{
			"inputs": [],
			"name": "_pinar",
			"outputs": [
				{
					"internalType": "uint256",
					"name": "",
					"type": "uint256"
				}
			],
			"stateMutability": "view",
			"type": "function"
		},
		{
			"inputs": [],
			"name": "_tayyip",
			"outputs": [
				{
					"internalType": "uint256",
					"name": "",
					"type": "uint256"
				}
			],
			"stateMutability": "view",
			"type": "function"
		},
		{
			"inputs": [],
			"name": "_toplamOySayisi",
			"outputs": [
				{
					"internalType": "uint256",
					"name": "",
					"type": "uint256"
				}
			],
			"stateMutability": "view",
			"type": "function"
		},
		{
			"inputs": [
				{
					"internalType": "bool",
					"name": "oy",
					"type": "bool"
				}
			],
			"name": "pinarOyVer",
			"outputs": [
				{
					"internalType": "uint256",
					"name": "",
					"type": "uint256"
				}
			],
			"stateMutability": "nonpayable",
			"type": "function"
		},
		{
			"inputs": [
				{
					"internalType": "bool",
					"name": "oy",
					"type": "bool"
				}
			],
			"name": "tayyipOyVer",
			"outputs": [
				{
					"internalType": "uint256",
					"name": "",
					"type": "uint256"
				}
			],
			"stateMutability": "nonpayable",
			"type": "function"
		}
	]
}