{
	"data": {
		"bytecode": {
			"linkReferences": {},
			"object": "608060405234801561001057600080fd5b5061074f806100206000396000f3fe608060405234801561001057600080fd5b50600436106100625760003560e01c806314345af0146100675780634a023ab2146100975780635e4dc8e1146100c7578063850abdd8146100f7578063d7d72e4c14610127578063e703b35c14610157575b600080fd5b610081600480360381019061007c9190610297565b610187565b60405161008e91906102d3565b60405180910390f35b6100b160048036038101906100ac91906102ee565b6101da565b6040516100be9190610349565b60405180910390f35b6100e160048036038101906100dc91906102ee565b6101e7565b6040516100ee91906102d3565b60405180910390f35b610111600480360381019061010c9190610390565b610209565b60405161011e9190610349565b60405180910390f35b610141600480360381019061013c9190610297565b61021d565b60405161014e91906102d3565b60405180910390f35b610171600480360381019061016c91906102ee565b610246565b60405161017e91906102d3565b60405180910390f35b60008060038361019791906103ff565b9050600081846101a79190610459565b9050600081836101b791906103ff565b905082826101c591906104de565b816101d0919061050f565b9350505050919050565b6000818314905092915050565b6000600282846101f791906103ff565b61020191906104de565b905092915050565b60008280156102155750815b905092915050565b600060028261022c9190610683565b672b93855d12ba000061023f91906103ff565b9050919050565b6000818361025491906106ce565b905092915050565b600080fd5b6000819050919050565b61027481610261565b811461027f57600080fd5b50565b6000813590506102918161026b565b92915050565b6000602082840312156102ad576102ac61025c565b5b60006102bb84828501610282565b91505092915050565b6102cd81610261565b82525050565b60006020820190506102e860008301846102c4565b92915050565b600080604083850312156103055761030461025c565b5b600061031385828601610282565b925050602061032485828601610282565b9150509250929050565b60008115159050919050565b6103438161032e565b82525050565b600060208201905061035e600083018461033a565b92915050565b61036d8161032e565b811461037857600080fd5b50565b60008135905061038a81610364565b92915050565b600080604083850312156103a7576103a661025c565b5b60006103b58582860161037b565b92505060206103c68582860161037b565b9150509250929050565b7f4e487b7100000000000000000000000000000000000000000000000000000000600052601160045260246000fd5b600061040a82610261565b915061041583610261565b9250817fffffffffffffffffffffffffffffffffffffffffffffffffffffffffffffffff048311821515161561044e5761044d6103d0565b5b828202905092915050565b600061046482610261565b915061046f83610261565b9250827fffffffffffffffffffffffffffffffffffffffffffffffffffffffffffffffff038211156104a4576104a36103d0565b5b828201905092915050565b7f4e487b7100000000000000000000000000000000000000000000000000000000600052601260045260246000fd5b60006104e982610261565b91506104f483610261565b925082610504576105036104af565b5b828204905092915050565b600061051a82610261565b915061052583610261565b925082821015610538576105376103d0565b5b828203905092915050565b60008160011c9050919050565b6000808291508390505b600185111561059a57808604811115610576576105756103d0565b5b60018516156105855780820291505b808102905061059385610543565b945061055a565b94509492505050565b6000826105b3576001905061066f565b816105c1576000905061066f565b81600181146105d757600281146105e157610610565b600191505061066f565b60ff8411156105f3576105f26103d0565b5b8360020a91508482111561060a576106096103d0565b5b5061066f565b5060208310610133831016604e8410600b84101617156106455782820a9050838111156106405761063f6103d0565b5b61066f565b6106528484846001610550565b92509050818404811115610669576106686103d0565b5b81810290505b9392505050565b600060ff82169050919050565b600061068e82610261565b915061069983610676565b92506106c67fffffffffffffffffffffffffffffffffffffffffffffffffffffffffffffffff84846105a3565b905092915050565b60006106d982610261565b91506106e483610261565b92506107117fffffffffffffffffffffffffffffffffffffffffffffffffffffffffffffffff84846105a3565b90509291505056fea26469706673582212206ee56625402cda429d19205ff6dff94f6fe78aeeda83e4e7c7cca4d4e99dae9e64736f6c634300080a0033",
			"opcodes": "PUSH1 0x80 PUSH1 0x40 MSTORE CALLVALUE DUP1 ISZERO PUSH2 0x10 JUMPI PUSH1 0x0 DUP1 REVERT JUMPDEST POP PUSH2 0x74F DUP1 PUSH2 0x20 PUSH1 0x0 CODECOPY PUSH1 0x0 RETURN INVALID PUSH1 0x80 PUSH1 0x40 MSTORE CALLVALUE DUP1 ISZERO PUSH2 0x10 JUMPI PUSH1 0x0 DUP1 REVERT JUMPDEST POP PUSH1 0x4 CALLDATASIZE LT PUSH2 0x62 JUMPI PUSH1 0x0 CALLDATALOAD PUSH1 0xE0 SHR DUP1 PUSH4 0x14345AF0 EQ PUSH2 0x67 JUMPI DUP1 PUSH4 0x4A023AB2 EQ PUSH2 0x97 JUMPI DUP1 PUSH4 0x5E4DC8E1 EQ PUSH2 0xC7 JUMPI DUP1 PUSH4 0x850ABDD8 EQ PUSH2 0xF7 JUMPI DUP1 PUSH4 0xD7D72E4C EQ PUSH2 0x127 JUMPI DUP1 PUSH4 0xE703B35C EQ PUSH2 0x157 JUMPI JUMPDEST PUSH1 0x0 DUP1 REVERT JUMPDEST PUSH2 0x81 PUSH1 0x4 DUP1 CALLDATASIZE SUB DUP2 ADD SWAP1 PUSH2 0x7C SWAP2 SWAP1 PUSH2 0x297 JUMP JUMPDEST PUSH2 0x187 JUMP JUMPDEST PUSH1 0x40 MLOAD PUSH2 0x8E SWAP2 SWAP1 PUSH2 0x2D3 JUMP JUMPDEST PUSH1 0x40 MLOAD DUP1 SWAP2 SUB SWAP1 RETURN JUMPDEST PUSH2 0xB1 PUSH1 0x4 DUP1 CALLDATASIZE SUB DUP2 ADD SWAP1 PUSH2 0xAC SWAP2 SWAP1 PUSH2 0x2EE JUMP JUMPDEST PUSH2 0x1DA JUMP JUMPDEST PUSH1 0x40 MLOAD PUSH2 0xBE SWAP2 SWAP1 PUSH2 0x349 JUMP JUMPDEST PUSH1 0x40 MLOAD DUP1 SWAP2 SUB SWAP1 RETURN JUMPDEST PUSH2 0xE1 PUSH1 0x4 DUP1 CALLDATASIZE SUB DUP2 ADD SWAP1 PUSH2 0xDC SWAP2 SWAP1 PUSH2 0x2EE JUMP JUMPDEST PUSH2 0x1E7 JUMP JUMPDEST PUSH1 0x40 MLOAD PUSH2 0xEE SWAP2 SWAP1 PUSH2 0x2D3 JUMP JUMPDEST PUSH1 0x40 MLOAD DUP1 SWAP2 SUB SWAP1 RETURN JUMPDEST PUSH2 0x111 PUSH1 0x4 DUP1 CALLDATASIZE SUB DUP2 ADD SWAP1 PUSH2 0x10C SWAP2 SWAP1 PUSH2 0x390 JUMP JUMPDEST PUSH2 0x209 JUMP JUMPDEST PUSH1 0x40 MLOAD PUSH2 0x11E SWAP2 SWAP1 PUSH2 0x349 JUMP JUMPDEST PUSH1 0x40 MLOAD DUP1 SWAP2 SUB SWAP1 RETURN JUMPDEST PUSH2 0x141 PUSH1 0x4 DUP1 CALLDATASIZE SUB DUP2 ADD SWAP1 PUSH2 0x13C SWAP2 SWAP1 PUSH2 0x297 JUMP JUMPDEST PUSH2 0x21D JUMP JUMPDEST PUSH1 0x40 MLOAD PUSH2 0x14E SWAP2 SWAP1 PUSH2 0x2D3 JUMP JUMPDEST PUSH1 0x40 MLOAD DUP1 SWAP2 SUB SWAP1 RETURN JUMPDEST PUSH2 0x171 PUSH1 0x4 DUP1 CALLDATASIZE SUB DUP2 ADD SWAP1 PUSH2 0x16C SWAP2 SWAP1 PUSH2 0x2EE JUMP JUMPDEST PUSH2 0x246 JUMP JUMPDEST PUSH1 0x40 MLOAD PUSH2 0x17E SWAP2 SWAP1 PUSH2 0x2D3 JUMP JUMPDEST PUSH1 0x40 MLOAD DUP1 SWAP2 SUB SWAP1 RETURN JUMPDEST PUSH1 0x0 DUP1 PUSH1 0x3 DUP4 PUSH2 0x197 SWAP2 SWAP1 PUSH2 0x3FF JUMP JUMPDEST SWAP1 POP PUSH1 0x0 DUP2 DUP5 PUSH2 0x1A7 SWAP2 SWAP1 PUSH2 0x459 JUMP JUMPDEST SWAP1 POP PUSH1 0x0 DUP2 DUP4 PUSH2 0x1B7 SWAP2 SWAP1 PUSH2 0x3FF JUMP JUMPDEST SWAP1 POP DUP3 DUP3 PUSH2 0x1C5 SWAP2 SWAP1 PUSH2 0x4DE JUMP JUMPDEST DUP2 PUSH2 0x1D0 SWAP2 SWAP1 PUSH2 0x50F JUMP JUMPDEST SWAP4 POP POP POP POP SWAP2 SWAP1 POP JUMP JUMPDEST PUSH1 0x0 DUP2 DUP4 EQ SWAP1 POP SWAP3 SWAP2 POP POP JUMP JUMPDEST PUSH1 0x0 PUSH1 0x2 DUP3 DUP5 PUSH2 0x1F7 SWAP2 SWAP1 PUSH2 0x3FF JUMP JUMPDEST PUSH2 0x201 SWAP2 SWAP1 PUSH2 0x4DE JUMP JUMPDEST SWAP1 POP SWAP3 SWAP2 POP POP JUMP JUMPDEST PUSH1 0x0 DUP3 DUP1 ISZERO PUSH2 0x215 JUMPI POP DUP2 JUMPDEST SWAP1 POP SWAP3 SWAP2 POP POP JUMP JUMPDEST PUSH1 0x0 PUSH1 0x2 DUP3 PUSH2 0x22C SWAP2 SWAP1 PUSH2 0x683 JUMP JUMPDEST PUSH8 0x2B93855D12BA0000 PUSH2 0x23F SWAP2 SWAP1 PUSH2 0x3FF JUMP JUMPDEST SWAP1 POP SWAP2 SWAP1 POP JUMP JUMPDEST PUSH1 0x0 DUP2 DUP4 PUSH2 0x254 SWAP2 SWAP1 PUSH2 0x6CE JUMP JUMPDEST SWAP1 POP SWAP3 SWAP2 POP POP JUMP JUMPDEST PUSH1 0x0 DUP1 REVERT JUMPDEST PUSH1 0x0 DUP2 SWAP1 POP SWAP2 SWAP1 POP JUMP JUMPDEST PUSH2 0x274 DUP2 PUSH2 0x261 JUMP JUMPDEST DUP2 EQ PUSH2 0x27F JUMPI PUSH1 0x0 DUP1 REVERT JUMPDEST POP JUMP JUMPDEST PUSH1 0x0 DUP2 CALLDATALOAD SWAP1 POP PUSH2 0x291 DUP2 PUSH2 0x26B JUMP JUMPDEST SWAP3 SWAP2 POP POP JUMP JUMPDEST PUSH1 0x0 PUSH1 0x20 DUP3 DUP5 SUB SLT ISZERO PUSH2 0x2AD JUMPI PUSH2 0x2AC PUSH2 0x25C JUMP JUMPDEST JUMPDEST PUSH1 0x0 PUSH2 0x2BB DUP5 DUP3 DUP6 ADD PUSH2 0x282 JUMP JUMPDEST SWAP2 POP POP SWAP3 SWAP2 POP POP JUMP JUMPDEST PUSH2 0x2CD DUP2 PUSH2 0x261 JUMP JUMPDEST DUP3 MSTORE POP POP JUMP JUMPDEST PUSH1 0x0 PUSH1 0x20 DUP3 ADD SWAP1 POP PUSH2 0x2E8 PUSH1 0x0 DUP4 ADD DUP5 PUSH2 0x2C4 JUMP JUMPDEST SWAP3 SWAP2 POP POP JUMP JUMPDEST PUSH1 0x0 DUP1 PUSH1 0x40 DUP4 DUP6 SUB SLT ISZERO PUSH2 0x305 JUMPI PUSH2 0x304 PUSH2 0x25C JUMP JUMPDEST JUMPDEST PUSH1 0x0 PUSH2 0x313 DUP6 DUP3 DUP7 ADD PUSH2 0x282 JUMP JUMPDEST SWAP3 POP POP PUSH1 0x20 PUSH2 0x324 DUP6 DUP3 DUP7 ADD PUSH2 0x282 JUMP JUMPDEST SWAP2 POP POP SWAP3 POP SWAP3 SWAP1 POP JUMP JUMPDEST PUSH1 0x0 DUP2 ISZERO ISZERO SWAP1 POP SWAP2 SWAP1 POP JUMP JUMPDEST PUSH2 0x343 DUP2 PUSH2 0x32E JUMP JUMPDEST DUP3 MSTORE POP POP JUMP JUMPDEST PUSH1 0x0 PUSH1 0x20 DUP3 ADD SWAP1 POP PUSH2 0x35E PUSH1 0x0 DUP4 ADD DUP5 PUSH2 0x33A JUMP JUMPDEST SWAP3 SWAP2 POP POP JUMP JUMPDEST PUSH2 0x36D DUP2 PUSH2 0x32E JUMP JUMPDEST DUP2 EQ PUSH2 0x378 JUMPI PUSH1 0x0 DUP1 REVERT JUMPDEST POP JUMP JUMPDEST PUSH1 0x0 DUP2 CALLDATALOAD SWAP1 POP PUSH2 0x38A DUP2 PUSH2 0x364 JUMP JUMPDEST SWAP3 SWAP2 POP POP JUMP JUMPDEST PUSH1 0x0 DUP1 PUSH1 0x40 DUP4 DUP6 SUB SLT ISZERO PUSH2 0x3A7 JUMPI PUSH2 0x3A6 PUSH2 0x25C JUMP JUMPDEST JUMPDEST PUSH1 0x0 PUSH2 0x3B5 DUP6 DUP3 DUP7 ADD PUSH2 0x37B JUMP JUMPDEST SWAP3 POP POP PUSH1 0x20 PUSH2 0x3C6 DUP6 DUP3 DUP7 ADD PUSH2 0x37B JUMP JUMPDEST SWAP2 POP POP SWAP3 POP SWAP3 SWAP1 POP JUMP JUMPDEST PUSH32 0x4E487B7100000000000000000000000000000000000000000000000000000000 PUSH1 0x0 MSTORE PUSH1 0x11 PUSH1 0x4 MSTORE PUSH1 0x24 PUSH1 0x0 REVERT JUMPDEST PUSH1 0x0 PUSH2 0x40A DUP3 PUSH2 0x261 JUMP JUMPDEST SWAP2 POP PUSH2 0x415 DUP4 PUSH2 0x261 JUMP JUMPDEST SWAP3 POP DUP2 PUSH32 0xFFFFFFFFFFFFFFFFFFFFFFFFFFFFFFFFFFFFFFFFFFFFFFFFFFFFFFFFFFFFFFFF DIV DUP4 GT DUP3 ISZERO ISZERO AND ISZERO PUSH2 0x44E JUMPI PUSH2 0x44D PUSH2 0x3D0 JUMP JUMPDEST JUMPDEST DUP3 DUP3 MUL SWAP1 POP SWAP3 SWAP2 POP POP JUMP JUMPDEST PUSH1 0x0 PUSH2 0x464 DUP3 PUSH2 0x261 JUMP JUMPDEST SWAP2 POP PUSH2 0x46F DUP4 PUSH2 0x261 JUMP JUMPDEST SWAP3 POP DUP3 PUSH32 0xFFFFFFFFFFFFFFFFFFFFFFFFFFFFFFFFFFFFFFFFFFFFFFFFFFFFFFFFFFFFFFFF SUB DUP3 GT ISZERO PUSH2 0x4A4 JUMPI PUSH2 0x4A3 PUSH2 0x3D0 JUMP JUMPDEST JUMPDEST DUP3 DUP3 ADD SWAP1 POP SWAP3 SWAP2 POP POP JUMP JUMPDEST PUSH32 0x4E487B7100000000000000000000000000000000000000000000000000000000 PUSH1 0x0 MSTORE PUSH1 0x12 PUSH1 0x4 MSTORE PUSH1 0x24 PUSH1 0x0 REVERT JUMPDEST PUSH1 0x0 PUSH2 0x4E9 DUP3 PUSH2 0x261 JUMP JUMPDEST SWAP2 POP PUSH2 0x4F4 DUP4 PUSH2 0x261 JUMP JUMPDEST SWAP3 POP DUP3 PUSH2 0x504 JUMPI PUSH2 0x503 PUSH2 0x4AF JUMP JUMPDEST JUMPDEST DUP3 DUP3 DIV SWAP1 POP SWAP3 SWAP2 POP POP JUMP JUMPDEST PUSH1 0x0 PUSH2 0x51A DUP3 PUSH2 0x261 JUMP JUMPDEST SWAP2 POP PUSH2 0x525 DUP4 PUSH2 0x261 JUMP JUMPDEST SWAP3 POP DUP3 DUP3 LT ISZERO PUSH2 0x538 JUMPI PUSH2 0x537 PUSH2 0x3D0 JUMP JUMPDEST JUMPDEST DUP3 DUP3 SUB SWAP1 POP SWAP3 SWAP2 POP POP JUMP JUMPDEST PUSH1 0x0 DUP2 PUSH1 0x1 SHR SWAP1 POP SWAP2 SWAP1 POP JUMP JUMPDEST PUSH1 0x0 DUP1 DUP3 SWAP2 POP DUP4 SWAP1 POP JUMPDEST PUSH1 0x1 DUP6 GT ISZERO PUSH2 0x59A JUMPI DUP1 DUP7 DIV DUP2 GT ISZERO PUSH2 0x576 JUMPI PUSH2 0x575 PUSH2 0x3D0 JUMP JUMPDEST JUMPDEST PUSH1 0x1 DUP6 AND ISZERO PUSH2 0x585 JUMPI DUP1 DUP3 MUL SWAP2 POP JUMPDEST DUP1 DUP2 MUL SWAP1 POP PUSH2 0x593 DUP6 PUSH2 0x543 JUMP JUMPDEST SWAP5 POP PUSH2 0x55A JUMP JUMPDEST SWAP5 POP SWAP5 SWAP3 POP POP POP JUMP JUMPDEST PUSH1 0x0 DUP3 PUSH2 0x5B3 JUMPI PUSH1 0x1 SWAP1 POP PUSH2 0x66F JUMP JUMPDEST DUP2 PUSH2 0x5C1 JUMPI PUSH1 0x0 SWAP1 POP PUSH2 0x66F JUMP JUMPDEST DUP2 PUSH1 0x1 DUP2 EQ PUSH2 0x5D7 JUMPI PUSH1 0x2 DUP2 EQ PUSH2 0x5E1 JUMPI PUSH2 0x610 JUMP JUMPDEST PUSH1 0x1 SWAP2 POP POP PUSH2 0x66F JUMP JUMPDEST PUSH1 0xFF DUP5 GT ISZERO PUSH2 0x5F3 JUMPI PUSH2 0x5F2 PUSH2 0x3D0 JUMP JUMPDEST JUMPDEST DUP4 PUSH1 0x2 EXP SWAP2 POP DUP5 DUP3 GT ISZERO PUSH2 0x60A JUMPI PUSH2 0x609 PUSH2 0x3D0 JUMP JUMPDEST JUMPDEST POP PUSH2 0x66F JUMP JUMPDEST POP PUSH1 0x20 DUP4 LT PUSH2 0x133 DUP4 LT AND PUSH1 0x4E DUP5 LT PUSH1 0xB DUP5 LT AND OR ISZERO PUSH2 0x645 JUMPI DUP3 DUP3 EXP SWAP1 POP DUP4 DUP2 GT ISZERO PUSH2 0x640 JUMPI PUSH2 0x63F PUSH2 0x3D0 JUMP JUMPDEST JUMPDEST PUSH2 0x66F JUMP JUMPDEST PUSH2 0x652 DUP5 DUP5 DUP5 PUSH1 0x1 PUSH2 0x550 JUMP JUMPDEST SWAP3 POP SWAP1 POP DUP2 DUP5 DIV DUP2 GT ISZERO PUSH2 0x669 JUMPI PUSH2 0x668 PUSH2 0x3D0 JUMP JUMPDEST JUMPDEST DUP2 DUP2 MUL SWAP1 POP JUMPDEST SWAP4 SWAP3 POP POP POP JUMP JUMPDEST PUSH1 0x0 PUSH1 0xFF DUP3 AND SWAP1 POP SWAP2 SWAP1 POP JUMP JUMPDEST PUSH1 0x0 PUSH2 0x68E DUP3 PUSH2 0x261 JUMP JUMPDEST SWAP2 POP PUSH2 0x699 DUP4 PUSH2 0x676 JUMP JUMPDEST SWAP3 POP PUSH2 0x6C6 PUSH32 0xFFFFFFFFFFFFFFFFFFFFFFFFFFFFFFFFFFFFFFFFFFFFFFFFFFFFFFFFFFFFFFFF DUP5 DUP5 PUSH2 0x5A3 JUMP JUMPDEST SWAP1 POP SWAP3 SWAP2 POP POP JUMP JUMPDEST PUSH1 0x0 PUSH2 0x6D9 DUP3 PUSH2 0x261 JUMP JUMPDEST SWAP2 POP PUSH2 0x6E4 DUP4 PUSH2 0x261 JUMP JUMPDEST SWAP3 POP PUSH2 0x711 PUSH32 0xFFFFFFFFFFFFFFFFFFFFFFFFFFFFFFFFFFFFFFFFFFFFFFFFFFFFFFFFFFFFFFFF DUP5 DUP5 PUSH2 0x5A3 JUMP JUMPDEST SWAP1 POP SWAP3 SWAP2 POP POP JUMP INVALID LOG2 PUSH5 0x6970667358 0x22 SLT KECCAK256 PUSH15 0xE56625402CDA429D19205FF6DFF94F PUSH16 0xE78AEEDA83E4E7C7CCA4D4E99DAE9E64 PUSH20 0x6F6C634300080A00330000000000000000000000 "
		},
		"gasEstimates": {
			"creation": {
				"codeDepositCost": "374200",
				"executionCost": "411",
				"totalCost": "374611"
			},
			"external": {
				"TopluIslem(uint256)": "infinite",
				"daireAlanHesaplama(uint256)": "infinite",
				"esitTest(uint256,uint256)": "infinite",
				"ucgenAlanHesaplama(uint256,uint256)": "infinite",
				"usHesaplama(uint256,uint256)": "infinite",
				"veTest(bool,bool)": "infinite"
			}
		},
		"methodIdentifiers": {
			"TopluIslem(uint256)": "14345af0",
			"daireAlanHesaplama(uint256)": "d7d72e4c",
			"esitTest(uint256,uint256)": "4a023ab2",
			"ucgenAlanHesaplama(uint256,uint256)": "5e4dc8e1",
			"usHesaplama(uint256,uint256)": "e703b35c",
			"veTest(bool,bool)": "850abdd8"
		}
	},
	"abi": [
		{
			"inputs": [
				{
					"internalType": "uint256",
					"name": "sayi1",
					"type": "uint256"
				}
			],
			"name": "TopluIslem",
			"outputs": [
				{
					"internalType": "uint256",
					"name": "",
					"type": "uint256"
				}
			],
			"stateMutability": "pure",
			"type": "function"
		},
		{
			"inputs": [
				{
					"internalType": "uint256",
					"name": "r",
					"type": "uint256"
				}
			],
			"name": "daireAlanHesaplama",
			"outputs": [
				{
					"internalType": "uint256",
					"name": "",
					"type": "uint256"
				}
			],
			"stateMutability": "pure",
			"type": "function"
		},
		{
			"inputs": [
				{
					"internalType": "uint256",
					"name": "sayi1",
					"type": "uint256"
				},
				{
					"internalType": "uint256",
					"name": "sayi2",
					"type": "uint256"
				}
			],
			"name": "esitTest",
			"outputs": [
				{
					"internalType": "bool",
					"name": "",
					"type": "bool"
				}
			],
			"stateMutability": "pure",
			"type": "function"
		},
		{
			"inputs": [
				{
					"internalType": "uint256",
					"name": "taban",
					"type": "uint256"
				},
				{
					"internalType": "uint256",
					"name": "yukseklik",
					"type": "uint256"
				}
			],
			"name": "ucgenAlanHesaplama",
			"outputs": [
				{
					"internalType": "uint256",
					"name": "",
					"type": "uint256"
				}
			],
			"stateMutability": "pure",
			"type": "function"
		},
		{
			"inputs": [
				{
					"internalType": "uint256",
					"name": "a",
					"type": "uint256"
				},
				{
					"internalType": "uint256",
					"name": "b",
					"type": "uint256"
				}
			],
			"name": "usHesaplama",
			"outputs": [
				{
					"internalType": "uint256",
					"name": "",
					"type": "uint256"
				}
			],
			"stateMutability": "pure",
			"type": "function"
		},
		{
			"inputs": [
				{
					"internalType": "bool",
					"name": "deger1",
					"type": "bool"
				},
				{
					"internalType": "bool",
					"name": "deger2",
					"type": "bool"
				}
			],
			"name": "veTest",
			"outputs": [
				{
					"internalType": "bool",
					"name": "",
					"type": "bool"
				}
			],
			"stateMutability": "pure",
			"type": "function"
		}
	]
}