{
	"data": {
		"bytecode": {
			"linkReferences": {},
			"object": "608060405234801561001057600080fd5b50610527806100206000396000f3fe608060405234801561001057600080fd5b50600436106100575760003560e01c8063146da21a1461005c5780632109a7c71461007a57806323f184f1146100aa57806347df69b0146100da57806350a2efe5146100f8575b600080fd5b610064610116565b60405161007191906102b5565b60405180910390f35b610094600480360381019061008f919061030d565b61011c565b6040516100a191906102b5565b60405180910390f35b6100c460048036038101906100bf9190610398565b610270565b6040516100d191906103d4565b60405180910390f35b6100e2610290565b6040516100ef91906102b5565b60405180910390f35b610100610296565b60405161010d91906102b5565b60405180910390f35b60035481565b60008015156000803373ffffffffffffffffffffffffffffffffffffffff1673ffffffffffffffffffffffffffffffffffffffff16815260200190815260200160002060009054906101000a900460ff161515146101af576040517f08c379a00000000000000000000000000000000000000000000000000000000081526004016101a69061044c565b60405180910390fd5b6001151582151514156101db576001600260008282546101cf919061049b565b925050819055506101f6565b6001600360008282546101ee919061049b565b925050819055505b6001806000828254610208919061049b565b9250508190555060016000803373ffffffffffffffffffffffffffffffffffffffff1673ffffffffffffffffffffffffffffffffffffffff16815260200190815260200160002060006101000a81548160ff0219169083151502179055506001549050919050565b60006020528060005260406000206000915054906101000a900460ff1681565b60025481565b60015481565b6000819050919050565b6102af8161029c565b82525050565b60006020820190506102ca60008301846102a6565b92915050565b600080fd5b60008115159050919050565b6102ea816102d5565b81146102f557600080fd5b50565b600081359050610307816102e1565b92915050565b600060208284031215610323576103226102d0565b5b6000610331848285016102f8565b91505092915050565b600073ffffffffffffffffffffffffffffffffffffffff82169050919050565b60006103658261033a565b9050919050565b6103758161035a565b811461038057600080fd5b50565b6000813590506103928161036c565b92915050565b6000602082840312156103ae576103ad6102d0565b5b60006103bc84828501610383565b91505092915050565b6103ce816102d5565b82525050565b60006020820190506103e960008301846103c5565b92915050565b600082825260208201905092915050565b7f5a6174656e206f79206b756c6c616e696c6d6973000000000000000000000000600082015250565b60006104366014836103ef565b915061044182610400565b602082019050919050565b6000602082019050818103600083015261046581610429565b9050919050565b7f4e487b7100000000000000000000000000000000000000000000000000000000600052601160045260246000fd5b60006104a68261029c565b91506104b18361029c565b9250827fffffffffffffffffffffffffffffffffffffffffffffffffffffffffffffffff038211156104e6576104e561046c565b5b82820190509291505056fea26469706673582212202b77a2479de04d44f3a6448d04a880022838266726a29a6975127fcb6c1e4df964736f6c634300080a0033",
			"opcodes": "PUSH1 0x80 PUSH1 0x40 MSTORE CALLVALUE DUP1 ISZERO PUSH2 0x10 JUMPI PUSH1 0x0 DUP1 REVERT JUMPDEST POP PUSH2 0x527 DUP1 PUSH2 0x20 PUSH1 0x0 CODECOPY PUSH1 0x0 RETURN INVALID PUSH1 0x80 PUSH1 0x40 MSTORE CALLVALUE DUP1 ISZERO PUSH2 0x10 JUMPI PUSH1 0x0 DUP1 REVERT JUMPDEST POP PUSH1 0x4 CALLDATASIZE LT PUSH2 0x57 JUMPI PUSH1 0x0 CALLDATALOAD PUSH1 0xE0 SHR DUP1 PUSH4 0x146DA21A EQ PUSH2 0x5C JUMPI DUP1 PUSH4 0x2109A7C7 EQ PUSH2 0x7A JUMPI DUP1 PUSH4 0x23F184F1 EQ PUSH2 0xAA JUMPI DUP1 PUSH4 0x47DF69B0 EQ PUSH2 0xDA JUMPI DUP1 PUSH4 0x50A2EFE5 EQ PUSH2 0xF8 JUMPI JUMPDEST PUSH1 0x0 DUP1 REVERT JUMPDEST PUSH2 0x64 PUSH2 0x116 JUMP JUMPDEST PUSH1 0x40 MLOAD PUSH2 0x71 SWAP2 SWAP1 PUSH2 0x2B5 JUMP JUMPDEST PUSH1 0x40 MLOAD DUP1 SWAP2 SUB SWAP1 RETURN JUMPDEST PUSH2 0x94 PUSH1 0x4 DUP1 CALLDATASIZE SUB DUP2 ADD SWAP1 PUSH2 0x8F SWAP2 SWAP1 PUSH2 0x30D JUMP JUMPDEST PUSH2 0x11C JUMP JUMPDEST PUSH1 0x40 MLOAD PUSH2 0xA1 SWAP2 SWAP1 PUSH2 0x2B5 JUMP JUMPDEST PUSH1 0x40 MLOAD DUP1 SWAP2 SUB SWAP1 RETURN JUMPDEST PUSH2 0xC4 PUSH1 0x4 DUP1 CALLDATASIZE SUB DUP2 ADD SWAP1 PUSH2 0xBF SWAP2 SWAP1 PUSH2 0x398 JUMP JUMPDEST PUSH2 0x270 JUMP JUMPDEST PUSH1 0x40 MLOAD PUSH2 0xD1 SWAP2 SWAP1 PUSH2 0x3D4 JUMP JUMPDEST PUSH1 0x40 MLOAD DUP1 SWAP2 SUB SWAP1 RETURN JUMPDEST PUSH2 0xE2 PUSH2 0x290 JUMP JUMPDEST PUSH1 0x40 MLOAD PUSH2 0xEF SWAP2 SWAP1 PUSH2 0x2B5 JUMP JUMPDEST PUSH1 0x40 MLOAD DUP1 SWAP2 SUB SWAP1 RETURN JUMPDEST PUSH2 0x100 PUSH2 0x296 JUMP JUMPDEST PUSH1 0x40 MLOAD PUSH2 0x10D SWAP2 SWAP1 PUSH2 0x2B5 JUMP JUMPDEST PUSH1 0x40 MLOAD DUP1 SWAP2 SUB SWAP1 RETURN JUMPDEST PUSH1 0x3 SLOAD DUP2 JUMP JUMPDEST PUSH1 0x0 DUP1 ISZERO ISZERO PUSH1 0x0 DUP1 CALLER PUSH20 0xFFFFFFFFFFFFFFFFFFFFFFFFFFFFFFFFFFFFFFFF AND PUSH20 0xFFFFFFFFFFFFFFFFFFFFFFFFFFFFFFFFFFFFFFFF AND DUP2 MSTORE PUSH1 0x20 ADD SWAP1 DUP2 MSTORE PUSH1 0x20 ADD PUSH1 0x0 KECCAK256 PUSH1 0x0 SWAP1 SLOAD SWAP1 PUSH2 0x100 EXP SWAP1 DIV PUSH1 0xFF AND ISZERO ISZERO EQ PUSH2 0x1AF JUMPI PUSH1 0x40 MLOAD PUSH32 0x8C379A000000000000000000000000000000000000000000000000000000000 DUP2 MSTORE PUSH1 0x4 ADD PUSH2 0x1A6 SWAP1 PUSH2 0x44C JUMP JUMPDEST PUSH1 0x40 MLOAD DUP1 SWAP2 SUB SWAP1 REVERT JUMPDEST PUSH1 0x1 ISZERO ISZERO DUP3 ISZERO ISZERO EQ ISZERO PUSH2 0x1DB JUMPI PUSH1 0x1 PUSH1 0x2 PUSH1 0x0 DUP3 DUP3 SLOAD PUSH2 0x1CF SWAP2 SWAP1 PUSH2 0x49B JUMP JUMPDEST SWAP3 POP POP DUP2 SWAP1 SSTORE POP PUSH2 0x1F6 JUMP JUMPDEST PUSH1 0x1 PUSH1 0x3 PUSH1 0x0 DUP3 DUP3 SLOAD PUSH2 0x1EE SWAP2 SWAP1 PUSH2 0x49B JUMP JUMPDEST SWAP3 POP POP DUP2 SWAP1 SSTORE POP JUMPDEST PUSH1 0x1 DUP1 PUSH1 0x0 DUP3 DUP3 SLOAD PUSH2 0x208 SWAP2 SWAP1 PUSH2 0x49B JUMP JUMPDEST SWAP3 POP POP DUP2 SWAP1 SSTORE POP PUSH1 0x1 PUSH1 0x0 DUP1 CALLER PUSH20 0xFFFFFFFFFFFFFFFFFFFFFFFFFFFFFFFFFFFFFFFF AND PUSH20 0xFFFFFFFFFFFFFFFFFFFFFFFFFFFFFFFFFFFFFFFF AND DUP2 MSTORE PUSH1 0x20 ADD SWAP1 DUP2 MSTORE PUSH1 0x20 ADD PUSH1 0x0 KECCAK256 PUSH1 0x0 PUSH2 0x100 EXP DUP2 SLOAD DUP2 PUSH1 0xFF MUL NOT AND SWAP1 DUP4 ISZERO ISZERO MUL OR SWAP1 SSTORE POP PUSH1 0x1 SLOAD SWAP1 POP SWAP2 SWAP1 POP JUMP JUMPDEST PUSH1 0x0 PUSH1 0x20 MSTORE DUP1 PUSH1 0x0 MSTORE PUSH1 0x40 PUSH1 0x0 KECCAK256 PUSH1 0x0 SWAP2 POP SLOAD SWAP1 PUSH2 0x100 EXP SWAP1 DIV PUSH1 0xFF AND DUP2 JUMP JUMPDEST PUSH1 0x2 SLOAD DUP2 JUMP JUMPDEST PUSH1 0x1 SLOAD DUP2 JUMP JUMPDEST PUSH1 0x0 DUP2 SWAP1 POP SWAP2 SWAP1 POP JUMP JUMPDEST PUSH2 0x2AF DUP2 PUSH2 0x29C JUMP JUMPDEST DUP3 MSTORE POP POP JUMP JUMPDEST PUSH1 0x0 PUSH1 0x20 DUP3 ADD SWAP1 POP PUSH2 0x2CA PUSH1 0x0 DUP4 ADD DUP5 PUSH2 0x2A6 JUMP JUMPDEST SWAP3 SWAP2 POP POP JUMP JUMPDEST PUSH1 0x0 DUP1 REVERT JUMPDEST PUSH1 0x0 DUP2 ISZERO ISZERO SWAP1 POP SWAP2 SWAP1 POP JUMP JUMPDEST PUSH2 0x2EA DUP2 PUSH2 0x2D5 JUMP JUMPDEST DUP2 EQ PUSH2 0x2F5 JUMPI PUSH1 0x0 DUP1 REVERT JUMPDEST POP JUMP JUMPDEST PUSH1 0x0 DUP2 CALLDATALOAD SWAP1 POP PUSH2 0x307 DUP2 PUSH2 0x2E1 JUMP JUMPDEST SWAP3 SWAP2 POP POP JUMP JUMPDEST PUSH1 0x0 PUSH1 0x20 DUP3 DUP5 SUB SLT ISZERO PUSH2 0x323 JUMPI PUSH2 0x322 PUSH2 0x2D0 JUMP JUMPDEST JUMPDEST PUSH1 0x0 PUSH2 0x331 DUP5 DUP3 DUP6 ADD PUSH2 0x2F8 JUMP JUMPDEST SWAP2 POP POP SWAP3 SWAP2 POP POP JUMP JUMPDEST PUSH1 0x0 PUSH20 0xFFFFFFFFFFFFFFFFFFFFFFFFFFFFFFFFFFFFFFFF DUP3 AND SWAP1 POP SWAP2 SWAP1 POP JUMP JUMPDEST PUSH1 0x0 PUSH2 0x365 DUP3 PUSH2 0x33A JUMP JUMPDEST SWAP1 POP SWAP2 SWAP1 POP JUMP JUMPDEST PUSH2 0x375 DUP2 PUSH2 0x35A JUMP JUMPDEST DUP2 EQ PUSH2 0x380 JUMPI PUSH1 0x0 DUP1 REVERT JUMPDEST POP JUMP JUMPDEST PUSH1 0x0 DUP2 CALLDATALOAD SWAP1 POP PUSH2 0x392 DUP2 PUSH2 0x36C JUMP JUMPDEST SWAP3 SWAP2 POP POP JUMP JUMPDEST PUSH1 0x0 PUSH1 0x20 DUP3 DUP5 SUB SLT ISZERO PUSH2 0x3AE JUMPI PUSH2 0x3AD PUSH2 0x2D0 JUMP JUMPDEST JUMPDEST PUSH1 0x0 PUSH2 0x3BC DUP5 DUP3 DUP6 ADD PUSH2 0x383 JUMP JUMPDEST SWAP2 POP POP SWAP3 SWAP2 POP POP JUMP JUMPDEST PUSH2 0x3CE DUP2 PUSH2 0x2D5 JUMP JUMPDEST DUP3 MSTORE POP POP JUMP JUMPDEST PUSH1 0x0 PUSH1 0x20 DUP3 ADD SWAP1 POP PUSH2 0x3E9 PUSH1 0x0 DUP4 ADD DUP5 PUSH2 0x3C5 JUMP JUMPDEST SWAP3 SWAP2 POP POP JUMP JUMPDEST PUSH1 0x0 DUP3 DUP3 MSTORE PUSH1 0x20 DUP3 ADD SWAP1 POP SWAP3 SWAP2 POP POP JUMP JUMPDEST PUSH32 0x5A6174656E206F79206B756C6C616E696C6D6973000000000000000000000000 PUSH1 0x0 DUP3 ADD MSTORE POP JUMP JUMPDEST PUSH1 0x0 PUSH2 0x436 PUSH1 0x14 DUP4 PUSH2 0x3EF JUMP JUMPDEST SWAP2 POP PUSH2 0x441 DUP3 PUSH2 0x400 JUMP JUMPDEST PUSH1 0x20 DUP3 ADD SWAP1 POP SWAP2 SWAP1 POP JUMP JUMPDEST PUSH1 0x0 PUSH1 0x20 DUP3 ADD SWAP1 POP DUP2 DUP2 SUB PUSH1 0x0 DUP4 ADD MSTORE PUSH2 0x465 DUP2 PUSH2 0x429 JUMP JUMPDEST SWAP1 POP SWAP2 SWAP1 POP JUMP JUMPDEST PUSH32 0x4E487B7100000000000000000000000000000000000000000000000000000000 PUSH1 0x0 MSTORE PUSH1 0x11 PUSH1 0x4 MSTORE PUSH1 0x24 PUSH1 0x0 REVERT JUMPDEST PUSH1 0x0 PUSH2 0x4A6 DUP3 PUSH2 0x29C JUMP JUMPDEST SWAP2 POP PUSH2 0x4B1 DUP4 PUSH2 0x29C JUMP JUMPDEST SWAP3 POP DUP3 PUSH32 0xFFFFFFFFFFFFFFFFFFFFFFFFFFFFFFFFFFFFFFFFFFFFFFFFFFFFFFFFFFFFFFFF SUB DUP3 GT ISZERO PUSH2 0x4E6 JUMPI PUSH2 0x4E5 PUSH2 0x46C JUMP JUMPDEST JUMPDEST DUP3 DUP3 ADD SWAP1 POP SWAP3 SWAP2 POP POP JUMP INVALID LOG2 PUSH5 0x6970667358 0x22 SLT KECCAK256 0x2B PUSH24 0xA2479DE04D44F3A6448D04A880022838266726A29A697512 PUSH32 0xCB6C1E4DF964736F6C634300080A003300000000000000000000000000000000 "
		},
		"gasEstimates": {
			"creation": {
				"codeDepositCost": "263800",
				"executionCost": "306",
				"totalCost": "264106"
			},
			"external": {
				"_oyVerdiMi(address)": "2867",
				"_toplamEvetSayisi()": "2473",
				"_toplamHayirSayisi()": "2407",
				"_toplamOySayisi()": "2495",
				"oyVer(bool)": "infinite"
			}
		},
		"methodIdentifiers": {
			"_oyVerdiMi(address)": "23f184f1",
			"_toplamEvetSayisi()": "47df69b0",
			"_toplamHayirSayisi()": "146da21a",
			"_toplamOySayisi()": "50a2efe5",
			"oyVer(bool)": "2109a7c7"
		}
	},
	"abi": [
		{
			"inputs": [
				{
					"internalType": "address",
					"name": "",
					"type": "address"
				}
			],
			"name": "_oyVerdiMi",
			"outputs": [
				{
					"internalType": "bool",
					"name": "",
					"type": "bool"
				}
			],
			"stateMutability": "view",
			"type": "function"
		},
		{
			"inputs": [],
			"name": "_toplamEvetSayisi",
			"outputs": [
				{
					"internalType": "uint256",
					"name": "",
					"type": "uint256"
				}
			],
			"stateMutability": "view",
			"type": "function"
		},
		{
			"inputs": [],
			"name": "_toplamHayirSayisi",
			"outputs": [
				{
					"internalType": "uint256",
					"name": "",
					"type": "uint256"
				}
			],
			"stateMutability": "view",
			"type": "function"
		},
		{
			"inputs": [],
			"name": "_toplamOySayisi",
			"outputs": [
				{
					"internalType": "uint256",
					"name": "",
					"type": "uint256"
				}
			],
			"stateMutability": "view",
			"type": "function"
		},
		{
			"inputs": [
				{
					"internalType": "bool",
					"name": "oy",
					"type": "bool"
				}
			],
			"name": "oyVer",
			"outputs": [
				{
					"internalType": "uint256",
					"name": "",
					"type": "uint256"
				}
			],
			"stateMutability": "nonpayable",
			"type": "function"
		}
	]
}