{
	"data": {
		"bytecode": {
			"linkReferences": {},
			"object": "608060405234801561001057600080fd5b5061015d806100206000396000f3fe608060405234801561001057600080fd5b506004361061002b5760003560e01c80632e32502014610030575b600080fd5b61005c6004803603602081101561004657600080fd5b8101908080359060200190929190505050610080565b6040518082600581111561006c57fe5b60ff16815260200191505060405180910390f35b600080821180156100925750600c8211155b156100a05760009050610122565b600c821180156100b1575060188211155b156100bf5760019050610122565b6018821180156100d05750609b8211155b156100de5760029050610122565b609c821180156100ef575060e48211155b156100fd5760039050610122565b60e48211801561010f57506102d08211155b1561011d5760049050610122565b600590505b91905056fea2646970667358221220a08403c97221c7dcc8a946f9db6ca4f1fc73295e252977ca3974c8ac4cae6c9464736f6c63430006000033",
			"opcodes": "PUSH1 0x80 PUSH1 0x40 MSTORE CALLVALUE DUP1 ISZERO PUSH2 0x10 JUMPI PUSH1 0x0 DUP1 REVERT JUMPDEST POP PUSH2 0x15D DUP1 PUSH2 0x20 PUSH1 0x0 CODECOPY PUSH1 0x0 RETURN INVALID PUSH1 0x80 PUSH1 0x40 MSTORE CALLVALUE DUP1 ISZERO PUSH2 0x10 JUMPI PUSH1 0x0 DUP1 REVERT JUMPDEST POP PUSH1 0x4 CALLDATASIZE LT PUSH2 0x2B JUMPI PUSH1 0x0 CALLDATALOAD PUSH1 0xE0 SHR DUP1 PUSH4 0x2E325020 EQ PUSH2 0x30 JUMPI JUMPDEST PUSH1 0x0 DUP1 REVERT JUMPDEST PUSH2 0x5C PUSH1 0x4 DUP1 CALLDATASIZE SUB PUSH1 0x20 DUP2 LT ISZERO PUSH2 0x46 JUMPI PUSH1 0x0 DUP1 REVERT JUMPDEST DUP2 ADD SWAP1 DUP1 DUP1 CALLDATALOAD SWAP1 PUSH1 0x20 ADD SWAP1 SWAP3 SWAP2 SWAP1 POP POP POP PUSH2 0x80 JUMP JUMPDEST PUSH1 0x40 MLOAD DUP1 DUP3 PUSH1 0x5 DUP2 GT ISZERO PUSH2 0x6C JUMPI INVALID JUMPDEST PUSH1 0xFF AND DUP2 MSTORE PUSH1 0x20 ADD SWAP2 POP POP PUSH1 0x40 MLOAD DUP1 SWAP2 SUB SWAP1 RETURN JUMPDEST PUSH1 0x0 DUP1 DUP3 GT DUP1 ISZERO PUSH2 0x92 JUMPI POP PUSH1 0xC DUP3 GT ISZERO JUMPDEST ISZERO PUSH2 0xA0 JUMPI PUSH1 0x0 SWAP1 POP PUSH2 0x122 JUMP JUMPDEST PUSH1 0xC DUP3 GT DUP1 ISZERO PUSH2 0xB1 JUMPI POP PUSH1 0x18 DUP3 GT ISZERO JUMPDEST ISZERO PUSH2 0xBF JUMPI PUSH1 0x1 SWAP1 POP PUSH2 0x122 JUMP JUMPDEST PUSH1 0x18 DUP3 GT DUP1 ISZERO PUSH2 0xD0 JUMPI POP PUSH1 0x9B DUP3 GT ISZERO JUMPDEST ISZERO PUSH2 0xDE JUMPI PUSH1 0x2 SWAP1 POP PUSH2 0x122 JUMP JUMPDEST PUSH1 0x9C DUP3 GT DUP1 ISZERO PUSH2 0xEF JUMPI POP PUSH1 0xE4 DUP3 GT ISZERO JUMPDEST ISZERO PUSH2 0xFD JUMPI PUSH1 0x3 SWAP1 POP PUSH2 0x122 JUMP JUMPDEST PUSH1 0xE4 DUP3 GT DUP1 ISZERO PUSH2 0x10F JUMPI POP PUSH2 0x2D0 DUP3 GT ISZERO JUMPDEST ISZERO PUSH2 0x11D JUMPI PUSH1 0x4 SWAP1 POP PUSH2 0x122 JUMP JUMPDEST PUSH1 0x5 SWAP1 POP JUMPDEST SWAP2 SWAP1 POP JUMP INVALID LOG2 PUSH5 0x6970667358 0x22 SLT KECCAK256 LOG0 DUP5 SUB 0xC9 PUSH19 0x21C7DCC8A946F9DB6CA4F1FC73295E252977CA CODECOPY PUSH21 0xC8AC4CAE6C9464736F6C6343000600003300000000 "
		},
		"gasEstimates": {
			"creation": {
				"codeDepositCost": "69800",
				"executionCost": "117",
				"totalCost": "69917"
			},
			"external": {
				"getStage(uint256)": "621"
			}
		},
		"methodIdentifiers": {
			"getStage(uint256)": "2e325020"
		}
	},
	"abi": [
		{
			"inputs": [
				{
					"internalType": "uint256",
					"name": "months",
					"type": "uint256"
				}
			],
			"name": "getStage",
			"outputs": [
				{
					"internalType": "enum Lifecycle.Stage",
					"name": "",
					"type": "uint8"
				}
			],
			"stateMutability": "pure",
			"type": "function"
		}
	]
}